:060000000A128A11752F9F
:100EB4003F3406345B344F3466346D347C34073449
:100EC4007F346F347E088A007F08820064270A1208
:100ED4008A118000840A04087D0603190034FF0A7D
:100EE4000319FE0A682F83132A30FD000730FE0021
:100EF4005A30FF00203084000A128A1168270A122F
:100F04008A1183010A128A11AD2F0030F0000030DB
:100F1400F1007108803AFE00E1307E02031D942F37
:100F2400A8307002031C972F982F992FAC2F0130F3
:100F3400F0070318F10A0030F1077108803AFE0047
:100F4400E1307E02031DA82FA8307002031CAB2FD2
:100F5400AC2F992F08002A3084002030F2000408B6
:100F6400F3000A30F4007208840083130008F500CB
:100F7400F20A7308840075088000F30AF40BB52F95
:100F84008316031387018312031388010030B4000E
:100F94000030B5003508803AFE0080307E02031D23
:100FA400D52F0A303402031CD82FD92FDA2FFC2F67
:100FB4008312031334082A3E840083130008870035
:100FC4000A128A1187270A128A1101308312031325
:100FD400B4070318B50A0030B5073508803AFE0097
:100FE40080307E02031DF82F0A303402031CFB2FCD
:0C0FF400FC2FDA2FC82F0A128A110028E7
:00000001FF
