:060000000A128A11A12F73
:100F0C003F3406345B344F3466346D347C340734F0
:100F1C007F346F347E088A007F08820090270A1283
:100F2C008A118000840A04087D0603190034FF0A24
:100F3C000319FE0A942F83133530FD000730FE0091
:100F4C008630FF002B3084000A128A1194270A1273
:100F5C008A1183010A128A11B32F203084002B309E
:100F6C00F0000408F1000A30F200700884008313CA
:100F7C000008F300F00A7108840073088000F10A7D
:100F8C00F20BBB2F83160313870183120313870104
:100F9C000310003003180130AA00031000300318AE
:100FAC000130AA000A302A02031CDD2FDE2FDF2FAE
:100FBC00FC2F2A08203E8400000887000630F2002F
:100FCC000E30F100B030F000F00BEA2FF10BEA2FED
:100FDC00F20BEA2F0130F000700883120313AA07FA
:100FEC000A302A02031CFB2FFC2FDF2FD32F0A12EF
:040FFC008A1100282E
:00000001FF
